:100000000C9458000C9480000C9480000C94800098
:100010000C9480000C9480000C9480000C94800060
:100020000C9480000C9480000C9480000C94800050
:100030000C9480000C9480000C9480000C94800040
:100040000C94F4020C9480000C94C2020C949C0258
:100050000C9480000C9480000C9480000C94800020
:100060000C943E030C948000000000002500280042
:100070002B00040404040404040402020202020229
:10008000030303030303010204081020408001025C
:1000900004081020010204081020000000080002DB
:1000A00001000003040700000000000000006C04D1
:1000B00011241FBECFEFD8E0DEBFCDBF11E0A0E01E
:1000C000B1E0E0E2FCE002C005900D92AE33B10772
:1000D000D9F722E0AEE3B1E001C01D92AD38B2071E
:1000E000E1F710E0C8E5D0E004C02197FE010E94CE
:1000F0000306C735D107C9F70E94A5040C940E0664
:100100000C94000090E0FC01E656FF4F2491FC01A6
:10011000EA57FF4F3491FC01EE58FF4FE491EE2374
:10012000B1F1222339F1233091F038F42130A9F0D4
:10013000223001F584B58F7D12C0273091F0283030
:10014000A1F02430B9F4809180008F7D03C08091AC
:1001500080008F77809380000DC084B58F7784BD39
:1001600009C08091B0008F7703C08091B0008F7D6F
:100170008093B000F0E0EE0FFF1FE859FF4FA5910C
:10018000B4918FB7F894EC913E2B3C938FBF0895B8
:10019000FC01538D448D252F30E0842F90E0821B8D
:1001A000930B541710F0CF96089501970895FC0112
:1001B000918D828D981761F0828DDF01A80FB11D9E
:1001C0005D968C91928D9F5F9F73928F90E00895C2
:1001D0008FEF9FEF0895FC01918D828D981731F07C
:1001E000828DE80FF11D858D90E008958FEF9FEFD0
:1001F0000895FC01918D228D892F90E0805C9F4FA6
:10020000821B91098F7399270895FC01848DDF016A
:10021000A80FB11DA35ABF4F2C91848D90E0019679
:100220008F739927848FA689B7892C93A089B18968
:100230008C9180648C93938D848D981306C0028872
:10024000F389E02D80818F7D80830895EF92FF9266
:100250000F931F93CF93DF93EC0181E0888F9B8DE9
:100260008C8D981305C0E889F989808185FD24C0AB
:10027000F62E0B8D10E00F5F1F4F0F731127E02E2E
:100280008C8DE8120CC00FB607FCFACFE889F9890B
:10029000808185FFF5CFCE010E940501F1CF8B8DC6
:1002A000FE01E80FF11DE35AFF4FF0820B8FEA8940
:1002B000FB898081806207C0EE89FF896083E889BD
:1002C000F98980818064808381E090E0DF91CF9123
:1002D0001F910F91FF90EF900895CF93DF93EC0162
:1002E000888D8823C9F0EA89FB89808185FD05C056
:1002F000A889B9898C9186FD0FC00FB607FCF5CF90
:10030000808185FFF2CFA889B9898C9185FFEDCFD7
:10031000CE010E940501E7CFDF91CF91089584EED1
:1003200091E00E94F90021E0892B09F420E0822F5E
:10033000089580E090E0892B29F00E948F018111BF
:100340000C94000008958091D80190E02091D7018D
:10035000821B91090895CF92DF92EF92FF920F9343
:100360001F93CF93DF936C017A018B01C0E0D0E043
:10037000CE15DF0589F0D8016D918D01D601ED9183
:10038000FC910190F081E02DC6010995892B11F4B3
:100390007E0102C02196ECCFC701DF91CF911F9162
:1003A0000F91FF90EF90DF90CF9008953FB7F894B2
:1003B00080918A0190918B01A0918C01B0918D0167
:1003C00026B5A89B05C02F3F19F00196A11DB11DB0
:1003D0003FBFBA2FA92F982F8827820F911DA11DEB
:1003E000B11DBC01CD0142E0660F771F881F991F28
:1003F0004A95D1F7089585ED8093BC008091BC00AB
:1004000084FDFCCF1092B601089540916001262F23
:1004100030E0240F311D21323105DCF42091B6018A
:100420002430C9F4FC0180E090E0861758F4309144
:1004300060012191DC01A25CBE4FA30FB11D2C9382
:100440000196F3CF80916001680F6093600180E0B6
:10045000089581E0089582E008950895E091D7011C
:100460008091D801E81730F4F0E0E954FE4F808124
:1004700090E008958FEF9FEF08959091D7018091BC
:10048000D801981750F4E92FF0E0E954FE4F20818D
:1004900030E09F5F9093D70102C02FEF3FEFC9017B
:1004A0000895CF93DF9300D0CDB7DEB7CB01642F93
:1004B00049835A830E9405024981842F5A81952FCE
:1004C0000F900F90DF91CF910895CF93DF931F92FC
:1004D000CDB7DEB7698361E0CE0101960E940502C7
:1004E00081E090E00F90DF91CF910895089580E032
:1004F00090E00895009769F0FC0101900020E9F771
:100500003197AF01481B590BBC0184EE91E00C946C
:10051000AB0180E090E00895CF93DF930E947A02D0
:10052000EC0184E291E00E947A028C0F9D1FDF9122
:10053000CF9108950E9409061F920F920FB60F9255
:1005400011242F933F934F935F936F937F938F93D8
:100550009F93AF93BF93EF93FF9384EE91E00E943C
:100560000501FF91EF91BF91AF919F918F917F9185
:100570006F915F914F913F912F910F900FBE0F9010
:100580001F9018951F920F920FB60F9211242F9360
:100590008F939F93EF93FF93E091F401F091F50116
:1005A0008081E091FA01F091FB0182FD12C09081FF
:1005B0008091FD018F5F8F732091FE01821751F0B2
:1005C000E091FD01F0E0EC51FE4F958F8093FD012D
:1005D00001C08081FF91EF919F918F912F910F909A
:1005E0000FBE0F901F9018951F920F920FB60F928B
:1005F00011242F933F938F939F93AF93BF93809139
:10060000860190918701A0918801B0918901309174
:10061000850123E0230F2D3720F40196A11DB11D84
:1006200005C026E8230F0296A11DB11D2093850168
:100630008093860190938701A0938801B0938901EC
:1006400080918A0190918B01A0918C01B0918D01D4
:100650000196A11DB11D80938A0190938B01A093F7
:100660008C01B0938D01BF91AF919F918F913F917C
:100670002F910F900FBE0F901F9018951F920F9201
:100680000FB60F9211242F933F934F935F936F9365
:100690007F938F939F93AF93BF93EF93FF9380913B
:1006A000B900887F803609F49CC068F5883209F467
:1006B0005BC090F4803109F454C038F4882309F405
:1006C000F6C0883009F44DC0F6C0883109F44CC03A
:1006D000803209F45DC0EFC0803409F468C048F48A
:1006E000803309F455C0883309F0E5C08093B40124
:1006F000D8C0803509F44FC0883509F45DC088340E
:1007000009F0D9C0D6C0883909F4C7C0A8F4883721
:1007100009F467C038F4883609F463C0803709F4F7
:1007200060C0C9C0883809F4B8C0803909F45FC016
:10073000803809F0C0C05BC0803B09F486C038F443
:10074000803A09F466C0883A09F47FC0B4C0803C9E
:1007500009F4A7C0883C09F4A4C0883B09F48AC006
:10076000AAC08091B10110C09091B3018091B201F3
:10077000981770F5E091B30181E08E0F8093B3017B
:10078000F0E0E057FE4F80818093BB0085EC86C08F
:100790008093B4018EC0E091B30181E08E0F80930D
:1007A000B3018091BB00F0E0E057FE4F8083909151
:1007B000B3018091B2016EC0E091B30181E08E0F70
:1007C0008093B3018091BB00F0E0E057FE4F80833F
:1007D0008091B50181116DC081E08093B00184EA00
:1007E00061C083E08093B60110928401CFCF8091E5
:1007F0008401803208F051C0E091840181E08E0FC5
:10080000809384018091BB00F0E0EC59FE4F80831F
:10081000BDCF85EC8093BC001092B601809184011D
:10082000803230F4E0918401F0E0EC59FE4F108208
:100830006091840170E0E0916201F091630184E6CF
:1008400091E009951092840136C084E08093B6014E
:100850001092610110926001E0915E01F0915F01E0
:10086000099580916001811105C081E0809360014C
:1008700010923E01E091610181E08E0F8093610151
:10088000F0E0E25CFE4F80818093BB0090916101BB
:1008900080916001981708F479CF85E88093BC00B7
:1008A0000AC085EC8093BC001092B60104C010927F
:1008B000B4010E94FB01FF91EF91BF91AF919F9115
:1008C0008F917F916F915F914F913F912F910F90F9
:1008D0000FBE0F901F901895E4EEF1E01382128284
:1008E00088EE93E0A0E0B0E084839583A683B7838D
:1008F00024E031E03183208325EC30E03587248704
:1009000024EC30E03787268720EC30E0318B208BD9
:1009100021EC30E0338B228B22EC30E0358B248BC2
:1009200026EC30E0378B268B118E128E138E148EB0
:10093000E1E8F2E01382128284839583A683B78371
:1009400086E191E0918380830895CF93DF93CDB7C3
:10095000DEB7A1970FB6F894DEBF0FBECDBF789477
:1009600084B5826084BD84B5816084BD85B58260B4
:1009700085BD85B5816085BD80916E008160809365
:100980006E001092810080918100826080938100CE
:1009900080918100816080938100809180008160DE
:1009A000809380008091B10084608093B100809139
:1009B000B00081608093B00080917A008460809361
:1009C0007A0080917A00826080937A0080917A0028
:1009D000816080937A0080917A00806880937A00A9
:1009E0001092C1001092D7011092D80110928F017D
:1009F00010928E011092B60181E08093B5011092A1
:100A0000B00182E10E94820083E10E948200809115
:100A1000B9008E7F8093B9008091B9008D7F80935B
:100A2000B90088E48093B80085E48093BC001092FC
:100A3000E3011092E20187E291E00E948C0211E052
:100A40000FEF98E0392E25EE222E3AE0432E512C5E
:100A5000612C712C8091B6018111FCCF1093B601ED
:100A60001093B5010093B4011092B3013092B2011A
:100A70001093B1018091B10180618093B1018091A7
:100A8000B001813071F41092B0018091B101809376
:100A9000BB008091BC0083FDF8CF25EC2093BC0007
:100AA00002C02092BC008091B6018130E1F38091B8
:100AB000B301893018F48091B30101C089E0A0E945
:100AC000B1E0E7EBF1E09E2F27EB31E0921B9817A6
:100AD00018F49D919193F7CF1092D7018093D8018C
:100AE0008DE291E00E948C021092E3011092E201EB
:100AF0009091D8018091D7019817C9F18AE391E0CC
:100B00000E948C02E090E201F090E30181E892E023
:100B10000E943D02F701E752FE4F8083282F30E00C
:100B200040E050E019A2CE0181967C01CA01B901D2
:100B3000A30192010E94E105605DF70162937F01CC
:100B4000211531054105510589F7CF010E947A022F
:100B500084E291E00E947A028091E2019091E301A7
:100B600001969093E3018093E2010A970CF20E94B0
:100B7000D6014B015C0188EEC82E83E0D82EE12C13
:100B8000F12C0E94D601DC01CB0188199909AA0930
:100B9000BB09883E9340A105B10558F0F1E0CF1A9A
:100BA000D108E108F10828EE820E23E0921EA11C74
:100BB000B11CC114D104E104F10419F70E94990198
:100BC00049CFA1E21A2EAA1BBB1BFD010DC0AA1F13
:100BD000BB1FEE1FFF1FA217B307E407F50720F0A6
:100BE000A21BB30BE40BF50B661F771F881F991F21
:100BF0001A9469F760957095809590959B01AC016A
:100C0000BD01CF010895EE0FFF1F0590F491E02D77
:100C1000099481E090E0F8940C940E06F894FFCFCC
:100C2000000000002601AB01C8006D01F900D700EB
:100C3000EB00000000006502510277022D02A301C3
:100C40003D022E020D0A0073746172740070757398
:0E0C50006820726571756573740067657400C5
:00000001FF
