:100000000C9463000C948B000C948B000C948B006C
:100010000C948B000C948B000C948B000C948B0034
:100020000C948B000C949E030C948B000C948B000E
:100030000C948B000C948B000C948B000C948B0014
:100040000C9454030C948B000C946A020C9444029C
:100050000C948B000C948B000C948B000C948B00F4
:100060000C9404040C948B00000000002400270072
:100070002A0000000000250028002B0000000000DE
:1000800023002600290004040404040404040202DA
:100090000202020203030303030301020408102007
:1000A0004080010204081020010204081020000012
:1000B0000008000201000003040700000000000027
:1000C0000000D40AC00A11241FBECFEFD8E0DEBF63
:1000D000CDBF24E0A2EDB2E001C01D92A038B2076E
:1000E000E1F712E0A0E0B1E0E4EFF2E202C0059037
:1000F0000D92A23DB107D9F710E0C2E6D0E004C0EE
:100100002197FE010E94520FC136D107C9F70E9404
:100110005A0B0C946D110C9400000895CF92DF924D
:10012000EF92FF920F931F93CF93DF936C017A01AD
:100130008B01C0E0D0E0CE15DF0589F0D8016D91CC
:100140008D01D601ED91FC910190F081E02DC60169
:100150000995892B11F47E0102C02196ECCFC701CD
:10016000DF91CF911F910F91FF90EF90DF90CF9093
:100170000895FC01538D448D252F30E0842F90E0AD
:10018000821B930B541710F0CF9608950197089592
:10019000FC01918D828D981761F0828DDF01A80F8F
:1001A000B11D5D968C91928D9F5F9F73928F90E0B1
:1001B00008958FEF9FEF0895FC01918D828D981720
:1001C00031F0828DE80FF11D858D90E008958FEF5D
:1001D0009FEF0895FC01918D228D892F90E0805C26
:1001E0009F4F821B91098F739927089586E993E0A9
:1001F0000E94EA0021E0892B09F420E0822F089573
:10020000FC01848DDF01A80FB11DA35ABF4F2C91B3
:10021000848D90E001968F739927848FA689B78982
:100220002C93A089B1898C9180648C93938D848D5B
:10023000981306C00288F389E02D80818F7D80832A
:100240000895EF92FF920F931F93CF93DF93EC01EA
:1002500081E0888F9B8D8C8D981305C0E889F98982
:10026000808185FD24C0F62E0B8D10E00F5F1F4F9F
:100270000F731127E02E8C8DE8120CC00FB607FC0F
:10028000FACFE889F989808185FFF5CFCE010E94F8
:100290000001F1CF8B8DFE01E80FF11DE35AFF4FF6
:1002A000F0820B8FEA89FB898081806207C0EE892A
:1002B000FF896083E889F98980818064808381E097
:1002C00090E0DF91CF911F910F91FF90EF900895F3
:1002D000CF93DF93EC01888D8823C9F0EA89FB89ED
:1002E000808185FD05C0A889B9898C9186FD0FC0E4
:1002F0000FB607FCF5CF808185FFF2CFA889B989B9
:100300008C9185FFEDCFCE010E940001E7CFDF91F8
:10031000CF91089580E090E0892B29F00E94F600AB
:1003200081110C9400000895833081F028F481300D
:1003300099F08230A1F008958730A9F08830B9F0A3
:100340008430D1F4809180008F7D03C08091800043
:100350008F7780938000089584B58F7702C084B52D
:100360008F7D84BD08958091B0008F7703C0809108
:10037000B0008F7D8093B000089585ED8093BC0020
:100380008091BC0084FDFCCF1092730308954091CE
:10039000FB02262F30E0240F311D21323105DCF421
:1003A000209173032430C9F4FC0180E090E08617AB
:1003B00058F43091FB022191DC01A752BD4FA30FED
:1003C000B11D2C930196F3CF8091FB02680F6093CF
:1003D000FB0280E0089581E0089582E00895089589
:1003E000E091750380917403E81730F4F0E0EA5867
:1003F000FC4F808190E008958FEF9FEF08959091DA
:10040000750380917403981750F4E92FF0E0EA58CF
:10041000FC4F208130E09F5F9093750302C02FEF67
:100420003FEFC90108958091740390E02091750316
:10043000821B91090895CF93DF9300D0CDB7DEB72B
:10044000CB01642F49835A830E94C7014981842FBD
:100450005A81952F0F900F90DF91CF910895CF93F0
:10046000DF931F92CDB7DEB7698361E0CE010196BD
:100470000E94C70181E090E00F90DF91CF91089535
:10048000089580E090E008951F920F920FB60F92AA
:1004900011242F933F934F935F936F937F938F9389
:1004A0009F93AF93BF93EF93FF9386E993E00E94EE
:1004B0000001FF91EF91BF91AF919F918F917F913B
:1004C0006F915F914F913F912F910F900FBE0F90C1
:1004D0001F9018951F920F920FB60F9211242F9311
:1004E0008F939F93EF93FF93E091A603F091A7035F
:1004F0008081E091AC03F091AD0382FD12C0908148
:100500008091AF038F5F8F732091B003821751F0FA
:10051000E091AF03F0E0EA56FC4F958F8093AF0374
:1005200001C08081FF91EF919F918F912F910F904A
:100530000FBE0F901F901895CF93DF93282F30E0B8
:10054000F901E255FF4F8491F901E656FF4FD4912E
:10055000F901EA57FF4FC491CC2391F081110E9419
:100560009401EC2FF0E0EE0FFF1FE458FF4FA59130
:10057000B491EC91ED2381E090E021F480E002C0A1
:1005800080E090E0DF91CF9108951F93CF93DF93A8
:10059000282F30E0F901E255FF4F8491F901E6562A
:1005A000FF4FD491F901EA57FF4FC491CC23C9F012
:1005B000162F81110E949401EC2FF0E0EE0FFF1F27
:1005C000EE58FF4FA591B4918FB7F894111105C063
:1005D0009C91ED2FE095E92302C0EC91ED2BEC937B
:1005E0008FBFDF91CF911F910895CF93DF9390E05C
:1005F000FC01E656FF4F2491FC01EA57FF4F84911E
:10060000882361F190E0880F991FFC01E859FF4FA2
:10061000C591D491FC01EE58FF4FA591B4916111A1
:1006200009C09FB7F8948881209582238883EC9134
:100630002E230BC0623061F49FB7F8943881822F6B
:10064000809583238883EC912E2B2C939FBF06C02B
:100650008FB7F894E8812E2B28838FBFDF91CF913D
:1006600008958E3008F08E508770806480937C00EF
:1006700080917A00806480937A0080917A0086FD70
:10068000FCCF809178002091790090E0922B089522
:100690002FB7F89460912A0370912B0380912C035B
:1006A00090912D032FBF08951F920F920FB60F92B6
:1006B00011242F933F938F939F93AF93BF93809178
:1006C0002A0390912B03A0912C03B0912D0330911C
:1006D000290323E0230F2D3720F40196A11DB11D1E
:1006E00005C026E8230F0296A11DB11D2093290302
:1006F00080932A0390932B03A0932C03B0932D0394
:100700008091250390912603A0912703B09128039F
:100710000196A11DB11D8093250390932603A093FC
:100720002703B0932803BF91AF919F918F913F9181
:100730002F910F900FBE0F901F9018951F920F9240
:100740000FB60F9211242F933F934F935F936F93A4
:100750007F938F939F93AF93BF93EF93FF9380917A
:100760003603909137038093B200809121039091DA
:100770002203A0912303B09124030196A11DB11D72
:100780008093210390932203A0932303B093240327
:10079000409121035091220360912303709124031F
:1007A0008091320390913303A0913403B0913503CB
:1007B000481759076A077B07B0F080912003811121
:1007C00012C081E080932003109221031092220333
:1007D0001092230310922403E0913003F09131032F
:1007E000099510922003FF91EF91BF91AF919F91D6
:1007F0008F917F916F915F914F913F912F910F90CA
:100800000FBE0F901F9018951F920F920FB60F9268
:1008100011242F933F934F935F936F937F938F9305
:100820009F93AF93BF93EF93FF938091B900887F1D
:10083000803609F49CC068F5883209F45BC090F4F6
:10084000803109F454C038F4882309F4F6C08830A4
:1008500009F44DC0F6C0883109F44CC0803209F467
:100860005DC0EFC0803409F468C048F4803309F4F7
:1008700055C0883309F0E5C080937103D8C0803536
:1008800009F44FC0883509F45DC0883409F0D9C037
:10089000D6C0883909F4C7C0A8F4883709F467C0FE
:1008A00038F4883609F463C0803709F460C0C9C0E1
:1008B000883809F4B8C0803909F45FC0803809F07D
:1008C000C0C05BC0803B09F486C038F4803A09F4AC
:1008D00066C0883A09F47FC0B4C0803C09F4A7C060
:1008E000883C09F4A4C0883B09F48AC0AAC080915E
:1008F0006E0310C09091700380916F03981770F58C
:10090000E091700381E08E0F80937003F0E0E35B71
:10091000FC4F80818093BB0085EC86C0809371037F
:100920008EC0E091700381E08E0F80937003809100
:10093000BB00F0E0E35BFC4F8083909170038091FB
:100940006F036EC0E091700381E08E0F809370039F
:100950008091BB00F0E0E35BFC4F808380917203E9
:1009600081116DC081E080936D0384EA61C083E0F2
:100970008093730310921F03CFCF80911F038032A7
:1009800008F051C0E0911F0381E08E0F80931F0398
:100990008091BB00F0E0E150FD4F8083BDCF85EC3E
:1009A0008093BC001092730380911F03803230F457
:1009B000E0911F03F0E0E150FD4F108260911F03B2
:1009C00070E0E091FD02F091FE028FEF92E0099558
:1009D00010921F0336C084E0809373031092FC02D0
:1009E0001092FB02E091F902F091FA0209958091D0
:1009F000FB02811105C081E08093FB021092D902B5
:100A0000E091FC0281E08E0F8093FC02F0E0E7525F
:100A1000FD4F80818093BB009091FC028091FB028E
:100A2000981708F479CF85E88093BC000AC085EC5C
:100A30008093BC001092730304C0109271030E9453
:100A4000BD01FF91EF91BF91AF919F918F917F91E8
:100A50006F915F914F913F912F910F900FBE0F902B
:100A60001F901895CF93DF930E94E108CCE3D3E069
:100A700090917403809175039817A1F083E394E03B
:100A80000E94FF018993682F70E080E090E04AE0C7
:100A90000E9429098AE291E00E949A0883E0C63404
:100AA000D80731F7DF91CF910895CF92DF92EF927F
:100AB000FF920F931F93CF93DF9300D000D000D00D
:100AC000CDB7DEB78DE291E00E94EF0986E993E0B1
:100AD0000E94EA00181619060CF0F2C286E993E0AB
:100AE0000E94EA001816190654F486E993E00E9461
:100AF000C800682F85E594E00E94FD09EFCF2091A2
:100B0000590430915A04C90102978217930730F4AF
:100B1000E0915504F0915604309729F41092D202D6
:100B2000E2EDF2E002C0E80FF91F10821A8219828A
:100B30001C821B821E821D82609155047091560496
:100B40006115710541F04091590450915A04CE014C
:100B500001960E942D0ACD80DE80E12CF12C00E070
:100B600010E0EC14FD0454F58D819E81E816F90621
:100B700080F489819A81009761F0FC01EE0DFF1DE0
:100B80006081603239F40F5F1F4F0630110594F019
:100B900039C060E00115110519F487E694E008C03A
:100BA0000130110519F481E694E002C08BE594E070
:100BB0000E94FD098FEFE81AF80AD3CF60E087E6BC
:100BC00094E00E94FD0960E081E694E00E94FD0946
:100BD00020915F0430916004C90102978217930746
:100BE00030F4E0915B04F0915C04309729F41092AA
:100BF000D202E2EDF2E002C0E80FF91F10820F5FAF
:100C00001F4F02C00FEF1FEF1093D8020093D702BF
:100C1000CE0101960E948E0A85E594E00E94AC0800
:100C20008091D7029091D8028130910509F0DEC100
:100C300083E391E00E94C108882309F4ABC00E94BD
:100C4000E1080CE313E09091740380917503981709
:100C5000B1F083E394E00E94FF01F80181938F01DA
:100C6000682F70E080E090E04AE00E9429098AE263
:100C700091E00E949A08F3E006341F0721F74091A3
:100C80003C0380913F0390E0330F220B322F909171
:100C90003E03892F90E0990F880B982F822B932B7E
:100CA000092E000CAA0BBB0B842B80933803909366
:100CB0003903A0933A03B0933B038AE391E00E9487
:100CC0009A08609138037091390380913A039091AA
:100CD0003B030E946A0940913803509139036091A7
:100CE0003A0370913B0322E0CE0101960E94930AE1
:100CF000CE0101960E947909CE0101960E948E0ACA
:100D00008DE694E00E94AC0820914003809141035D
:100D100090E0982F8827092E000CAA0BBB0B822B82
:100D20008093D3029093D402A093D502B093D602BD
:100D300085E491E00E949A086091D3027091D402F8
:100D40008091D5029091D6020E946A094091D30207
:100D50005091D4026091D5027091D60222E0CE016A
:100D600001960E94930ACE0101960E947909CE0154
:100D700001960E948E0A8DE694E00E94AC0889E4F8
:100D800091E00E949A088091440380FF8EC183E91C
:100D900092E08DC18AE691E00E94C108811168C18C
:100DA0008FE691E00E94C108882339F061E085E078
:100DB0000E94C50287E791E00CC089E891E00E949B
:100DC000C108882369F061E086E00E94C50281E9DC
:100DD00091E00E949A088BE291E00E949A0848C133
:100DE00083EA91E00E94C108882339F060E085E041
:100DF0000E94C5028CEA91E0ECCF8FEB91E00E945B
:100E0000C108882339F060E086E00E94C50288ECC2
:100E100091E0DFCF8BED91E00E94C108882399F02B
:100E200061E080914D040E94C50286EE91E00E942F
:100E30009A088BE291E00E949A0880E00E943103B8
:100E40000E94B60915C18BEF91E00E94C10888236A
:100E500041F060E080914D040E94C50287E092E07D
:100E6000B8CF8DE192E00E94C108882319F085E295
:100E700092E0AFCF8EE292E00E94C108882319F081
:100E800085E392E0A6CF8EE392E00E94C10888231A
:100E900039F0809153040E94310385E492E099CFA8
:100EA0008EE492E00E94C108882369F00E94320516
:100EB00089E491E00E949A088091440380FDFDC07E
:100EC0008FE892E08ACF85E592E00E94C1088823EE
:100ED00069F00E94320589E591E00E949A088091AC
:100EE000440380FDE7C08CE992E077CF8DE592E086
:100EF0000E94C1088823B9F10E94320540913C0349
:100F000080913F0390E0330F220B322F90913E03EC
:100F1000892F90E0990F880B982F822B932B092E05
:100F2000000CAA0BBB0B842B8093380390933903DE
:100F3000A0933A03B0933B038AE391E00E949A089E
:100F4000609138037091390380913A0390913B038B
:100F50000E946A09409138035091390360913A0325
:100F600070913B0333C08AE692E00E94C108882357
:100F700009F47EC00E943205209140038091410314
:100F800090E0982F8827092E000CAA0BBB0B822B10
:100F90008093D3029093D402A093D502B093D6024B
:100FA00085E491E00E949A086091D3027091D40286
:100FB0008091D5029091D6020E946A094091D30295
:100FC0005091D4026091D5027091D60222E0CE01F8
:100FD00001960E94930ACE0101960E947909CE01E2
:100FE00001960E948E0A8DE694E040C0039709F0B6
:100FF0003FC085E792E00E94C108882369F18EE72F
:1010000092E00E94EF098091610490916204009740
:1010100019F00E94660E03C060E070E0CB0160939F
:10102000490370934A0380934B0390934C03809140
:101030005B0490915C04009719F00E94660E03C057
:1010400060E070E0CB0160934503709346038093AA
:101050004703909348030CC087E694E00E94AC08D5
:1010600081E694E00E94AC088BE594E00E94AC0815
:101070001092D8021092D7026CE271E085E594E0FC
:101080000E94580A6CE271E087E694E00E94580AD8
:101090006CE271E081E694E00E94580A6CE271E033
:1010A0008BE594E00E94580A0BC08FE892E00E9402
:1010B0009A0811CF88E992E090CE83E992E08DCE34
:1010C00080E090E026960FB6F894DEBF0FBECDBF4D
:1010D000DF91CF911F910F91FF90EF90DF90CF9014
:1010E00008950E944F110F931F93CF93DF93EC014C
:1010F00088819981009729F02A813B81261737073B
:1011000088F48B016F5F7F4F0E948510009761F01C
:10111000998388831B830A832C813D81232B11F4BF
:10112000FC01108281E001C080E0DF91CF911F912E
:101130000F910895009769F0FC0101900020E9F7F4
:101140003197AF01481B590BBC0186E993E00C9421
:101150008E0080E090E00895CF93DF93FC014481FE
:1011600055816081718186E993E00E948E00EC01D7
:101170008AE291E00E949A088C0F9D1FDF91CF9127
:101180000895FC0180916B0490916C04892B21F4EB
:1011900021E0309749F413C080916704909168046E
:1011A000309731F421E0FC018081882341F006C0B2
:1011B000BF010E945D1121E0892B09F020E0822F00
:1011C0000895809173038111FCCF81E080937303B4
:1011D000809372039FEF909371031092700398E0D5
:1011E00090936F0380936E0380916E038061809370
:1011F0006E0380916D03813061F410926D038091D4
:101200006E038093BB008091BC0083FDF8CF85EC1A
:1012100001C085EE8093BC00809173038130E1F3BF
:1012200080917003893018F48091700301C089E0C7
:10123000ADE4B3E026E733E0F9019E2F921B981747
:1012400018F49D919193F9CF1092750380937403D4
:1012500008958F929F92AF92BF920F931F93CF9357
:10126000DF93CDB7DEB7A1970FB6F894DEBF0FBE00
:10127000CDBF19A2423008F44AE08E010F5D1F4F26
:10128000842E912CA12CB12CA50194010E94300F29
:10129000E62FB901CA0101501109EA3014F4E05DEA
:1012A00001C0E95CD801EC93232B242B252B61F79B
:1012B000C8010E949A08A1960FB6F894DEBF0FBE2F
:1012C000CDBFDF91CF911F910F91BF90AF909F90B5
:1012D0008F900895CF93DF934AE00E942909EC0193
:1012E0008AE291E00E949A088C0F9D1FDF91CF91B6
:1012F0000895CF93DF93EC0180916D0490916E047B
:101300000097C9F0688179816115710591F040916C
:101310006F04509170042C813D814217530748F0AF
:101320000E9466118C819D81909372048093710458
:1013300018C00E94ED0F8881998190936E0480936C
:101340006D048A819B819093700480936F048C81DB
:101350009D819093720480937104198218821B827C
:101360001A821D821C82DF91CF910895CF92DF9265
:10137000EF92FF92CF93DF936C01990FEE08FF0875
:10138000F7FE1AC0E0919603F09197030190F08167
:10139000E02D6DE286E993E00995EC016627772759
:1013A000CB016C197D098E099F094AE00E94290929
:1013B0007C01EC0EFD1E06C04AE0C701B6010E948A
:1013C00029097C018AE291E00E949A088E0D9F1DF6
:1013D000DF91CF91FF90EF90DF90CF900895CF9362
:1013E000DF930E949A08EC018AE291E00E949A0839
:1013F0008C0F9D1FDF91CF910895EF92FF920F9375
:101400001F93CF93DF9300D0CDB7DEB78C016983F4
:101410001A82FC01E480F580FFEFEF1AFF0AB701A2
:101420000E947308882381F0F80120813181848132
:101430009581BE016F5F7F4F820F931F0E946611DF
:10144000F801F582E48281E00F900F90DF91CF9157
:101450001F910F91FF90EF900895EF92FF920F93DD
:101460001F93CF93DF93EC017B018A01BA010E94A5
:1014700073082881398181110DC02115310519F0BA
:10148000C9010E94ED0F198218821D821C821B82E5
:101490001A8206C01D830C83B701C9010E94661120
:1014A000CE01DF91CF911F910F91FF90EF900895A2
:1014B000CF93DF93EC016115710559F0FB010190A9
:1014C0000020E9F73197AF01461B570B0E942D0A08
:1014D0000CC088819981009711F00E94ED0F19824C
:1014E00018821D821C821B821A82CE01DF91CF914D
:1014F0000895FC01118210821382128215821482D7
:101500006115710551F0FB0101900020E9F7319759
:10151000AF01461B570B0C942D0A0895FC018081E6
:1015200091810C94ED0F0F931F93CF93DF93CDB761
:10153000DEB7A1970FB6F894DEBF0FBECDBF8C010A
:10154000CB01BA01F8011182108213821282158236
:10155000148230E0AE014F5F5F4F0E94A20EBE01C9
:101560006F5F7F4FC8010E94580AA1960FB6F8948A
:10157000DEBF0FBECDBFDF91CF911F910F910895B8
:1015800085E594E00E948E0A8BE594E00E948E0A25
:1015900081E694E00E948E0A87E694E00E948E0A1B
:1015A0008DE694E00C948E0ACF93DF93E6E9F3E0A6
:1015B0001382128288EE93E0A0E0B0E084839583EA
:1015C000A683B7832AE031E03183208325EC30E025
:1015D0003587248724EC30E03787268720EC30E0FD
:1015E000318B208B21EC30E0338B228B22EC30E0EE
:1015F000358B248B26EC30E0378B268B118E128EA8
:10160000138E148EE3E3F4E01382128284839583B5
:10161000A683B7838CE191E0918380836CE271E0D3
:101620008DE694E00E94790A6CE271E087E694E02E
:101630000E94790A6CE271E081E694E00E94790AE6
:101640006CE271E08BE594E00E94790A6CE271E053
:1016500085E594E00E94790ACFE3D4E018821982EC
:101660001A821B821C821D821E821F821986188686
:1016700085E090E09B878A8726E030E03D872C87D5
:101680009F878E87198A188A81E090E09B8B8A8BCE
:1016900088E190E09D8B8C8B61E085E00E94F502F3
:1016A00061E08C850E94F50261E08E85DF91CF912B
:1016B0000C94F502CF93DF93CDB7DEB72A970FB620
:1016C000F894DEBF0FBECDBF789484B5826084BD30
:1016D00084B5816084BD85B5826085BD85B5816036
:1016E00085BD80916E00816080936E0010928100B4
:1016F000809181008260809381008091810081606F
:10170000809381008091800081608093800080912F
:10171000B10084608093B1008091B00081608093BB
:10172000B00080917A00846080937A0080917A0082
:10173000826080937A0080917A00816080937A0041
:1017400080917A00806880937A001092C100109294
:1017500075031092740310922F0310922E031092AF
:10176000730381E08093720310926D0361E082E164
:101770000E94C50261E083E10E94C5028091B90028
:101780008E7F8093B9008091B9008D7F8093B900DE
:1017900088E48093B80085E48093BC0061E085E034
:1017A0000E94F50261E086E00E94F50261E085E0BA
:1017B0000E94F50260E083E00E94F50260E082E0B2
:1017C0000E94F50260E080E00E94F50260E081E0A6
:1017D0000E94F50260E088E10E94F50280917000AD
:1017E0008E7F809370008091B0008C7F8093B000DA
:1017F0008091B100877F8093B1008091B6008F7D8A
:101800008093B600809170008D7F809370008091EE
:10181000B10084608093B1008091B1008C7F80938F
:10182000B10086E090E0909337038093360388EB15
:101830009BE0A0E0B0E08093320390933303A09349
:101840003403B093350385E595E09093310380939D
:101850003003E091A603F091A70382E08083E0913A
:10186000A203F091A3031082E091A403F091A503D9
:101870008FEC80831092AE03E091AA03F091AB034A
:1018800086E08083E091A803F091A90380818061C4
:101890008083E091A803F091A90380818860808310
:1018A000E091A803F091A903808180688083E09192
:1018B000A803F091A90380818F7D808383EA92E061
:1018C0000E949A0883E00E949C02019729F482E01A
:1018D0000E949C020197D9F083E00E949C02892B10
:1018E00039F582E00E949C02019711F58CE390E0AB
:1018F000A0E0B0E08093490390934A03A0934B0388
:10190000B0934C038CE192E0A0E0B0E02DC08FE0FA
:1019100090E0A0E0B0E08093490390934A03A09345
:101920004B03B0934C0389E492E0A0E0B0E01CC00C
:1019300083E00E949C02019709F050C182E00E945E
:101940009C02892B09F04AC188E691E0A0E0B0E052
:101950008093490390934A03A0934B03B0934C03A5
:1019600080EF90E0A0E0B0E08093450390934603C1
:10197000A0934703B09348037FE0872E912CA12CBE
:10198000B12CE9E44E2EE2E05E2E612C712C83E056
:101990000E949C02019709F03EC182E00E949C02D5
:1019A000019709F038C18092490390924A03A092AE
:1019B0004B03B0924C034092450350924603609211
:1019C0004703709248030E944803C0907804D09067
:1019D0007904E0907A04F0907B04C114D104E1040E
:1019E000F10409F46BC080917704882309F440C0A6
:1019F0000E9448039B01AC012C193D094E095F0967
:101A000069017A012091490330914A0340914B03C7
:101A100050914C03AAE0B0E00E94DF0EC616D70634
:101A2000E806F90608F46EC088EB92E00E949A0876
:101A3000609145037091460380914703909148035C
:101A40000E946A0982E00E9431030E94B60960E0A8
:101A500085E00E94C5020E94480360937804709359
:101A6000790480937A0490937B04109277044AC09F
:101A70000E9448039B01AC012C193D094E095F09E6
:101A80002F83388749875A87209145033091460331
:101A90004091470350914803AAE0B0E00E94DF0E56
:101AA0002F81388549855A852617370748075907F2
:101AB00028F488EC92E00E94EF0924C089EA92E0C1
:101AC0000E949A086091490370914A0380914B03E8
:101AD00090914C030E946A0982E00E9431030E94A7
:101AE000B60961E085E00E94C5020E944803609348
:101AF00078047093790480937A0490937B0481E056
:101B0000809377040E944803009173041091740439
:101B10002091750430917604DC01CB01801B910B80
:101B2000A20BB30B893B9B40A105B10508F453C040
:101B30000E9455050E94320520913C0380913F038D
:101B400090E0550F440B542F90913E03892F90E065
:101B5000990F880B982F842B952B092E000CAA0B1C
:101B6000BB0B822B8093380390933903A0933A03E5
:101B7000B0933B038AE391E00E949A086091380396
:101B80007091390380913A0390913B030E946A0956
:101B9000409138035091390360913A0370913B03AF
:101BA00022E0CE0101960E94930ACE0101960E9486
:101BB0007909CE0101960E948E0A8DE694E00E947A
:101BC000AC080E944803609373047093740480937C
:101BD0007504909376040E948A01D9CE83E00E9416
:101BE0009C02892B09F0C8CE82E00E949C02892BBE
:101BF00009F0C2CE88E592E0A0E0B0E0809349030E
:101C000090934A03A0934B03B0934C0384E690E077
:101C1000A0E0B0E0A9CE83E00E949C02892BB1F441
:101C200082E00E949C02019789F48CE390E0A0E09E
:101C3000B0E08093490390934A03A0934B03B09381
:101C40004C032CE132E040E050E01AC083E00E94F7
:101C50009C020197F1F482E00E949C02892BC9F456
:101C600088E691E0A0E0B0E08093490390934A03B6
:101C7000A0934B03B0934C0320EF30E040E050E0E2
:101C80002093450330934603409347035093480302
:101C90009ACE83E00E949C02892B09F094CE82E0C8
:101CA0000E949C02892B09F08ECE88E592E0A0E08C
:101CB000B0E08093490390934A03A0934B03B09301
:101CC0004C0324E630E040E050E0DACF1F93FC0103
:101CD00099278827BC01E89411911032E9F3193053
:101CE00010F01E30C8F31B3251F01D3249F46894D5
:101CF00006C00E948D0E610F711D811D911D1191F5
:101D000010531A30B0F33EF490958095709561951C
:101D10007F4F8F4F9F4F1F910895592F482F372F77
:101D2000262F660F771F881F991F660F771F881F42
:101D3000991F620F731F841F951F660F771F881FDF
:101D4000991F08952532310520F4223010F00C94AB
:101D5000AD0EFA011082CA010895BB27FA01A62F21
:101D60006217710581059105330B30FB66F0AA27D8
:101D7000660F771F881F991FAA1FA21710F0A21BBA
:101D800063953850A9F7A05DAA3308F0A95DA19327
:101D900036F7B111B1931082CA010C94CF0EDC0159
:101DA000FC01672F71917723E1F7329704C07C9192
:101DB0006D9370836291AE17BF07C8F308950E94B8
:101DC000210FA59F900DB49F900DA49F800D911D94
:101DD000112408952F923F924F925F926F927F92BB
:101DE0008F929F92AF92BF92CF92DF92EF92FF922B
:101DF0000F931F93CF93DF93CDB7DEB7CA1BDB0BD7
:101E00000FB6F894DEBF0FBECDBF09942A8839887B
:101E100048885F846E847D848C849B84AA84B98482
:101E2000C884DF80EE80FD800C811B81AA81B9818E
:101E3000CE0FD11D0FB6F894DEBF0FBECDBFED01A2
:101E40000895A29FB001B39FC001A39F700D811D93
:101E50001124911DB29F700D811D1124911D0895B3
:101E6000A1E21A2EAA1BBB1BFD010DC0AA1FBB1F9E
:101E7000EE1FFF1FA217B307E407F50720F0A21B10
:101E8000B30BE40BF50B661F771F881F991F1A947D
:101E900069F760957095809590959B01AC01BD01A7
:101EA000CF010895EE0FFF1F0590F491E02D0994E6
:101EB000CF93DF938230910510F482E090E0E091BF
:101EC0007E04F0917F0420E030E0C0E0D0E0309765
:101ED00011F14081518148175907C0F0481759073F
:101EE00061F482819381209719F09B838A832BC0B0
:101EF00090937F0480937E0426C02115310519F04C
:101F00004217530718F49A01BE01DF01EF01028066
:101F1000F381E02DDCCF2115310509F1281B390BA8
:101F20002430310590F412968D919C911397611590
:101F3000710521F0FB019383828304C090937F0499
:101F400080937E04FD01329644C0FD01E20FF31F31
:101F500081939193225031092D933C933AC0209163
:101F60007C0430917D04232B41F4209102013091B7
:101F7000030130937D0420937C0420910001309173
:101F800001012115310541F42DB73EB740910401FF
:101F900050910501241B350BE0917C04F0917D04E8
:101FA000E217F307A0F42E1B3F0B2817390778F030
:101FB000AC014E5F5F4F2417350748F04E0F5F1F8F
:101FC00050937D0440937C048193919302C0E0E0A0
:101FD000F0E0CF01DF91CF9108950F931F93CF933E
:101FE000DF93009709F48CC0FC01329713821282B0
:101FF00000917E0410917F040115110581F4208168
:102000003181820F931F20917C0430917D04281729
:10201000390779F5F0937D04E0937C0471C0D80111
:1020200040E050E0AE17BF0750F412962D913C915E
:102030001397AD012115310509F1D901F3CF9D01A8
:10204000DA013383228360817181860F971F8217A3
:10205000930769F4EC0128813981260F371F2E5F21
:102060003F4F318320838A819B8193838283452BD9
:1020700029F4F0937F04E0937E0442C01396FC930E
:10208000EE931297ED01499159919E01240F351F4E
:10209000E217F30771F480819181840F951F0296F6
:1020A00011969C938E938281938113969C938E9329
:1020B0001297E0E0F0E0D80112968D919C91139771
:1020C000009719F0F8018C01F6CF8D919C91980141
:1020D0002E5F3F4F820F931F20917C0430917D042F
:1020E0002817390769F4309729F410927F04109269
:1020F0007E0402C01382128210937D0400937C043C
:10210000DF91CF911F910F910895A0E0B0E0EBE82F
:10211000F0E10C94EE0EEC01009721F4CB010E944B
:10212000580FB8C0FC01E60FF71F9C01225031097F
:10213000E217F30708F4ACC0D9010D911C91119777
:1021400006171707B0F00530110508F49FC0C80145
:1021500004978617970708F499C002501109061BC7
:10216000170B019311936D937C93CF010E94ED0F98
:102170008DC05B01A01AB10A4C01800E911EA09186
:102180007E04B0917F0440E050E0E12CF12C1097E8
:1021900009F44AC0A815B905D1F56D907C90119746
:1021A000630182E0C80ED11CCA14DB0480F1A301D4
:1021B0004A195B096A0182E0C80ED11C1296BC90D4
:1021C00012971396AC91B5E0CB16D10440F0B282D1
:1021D000A38351834083D9016D937C930AC00E5F22
:1021E0001F4FC301800F911FF90191838083EB2D55
:1021F000FA2FE114F10431F0D7011396FC93EE931A
:10220000129744C0F0937F04E0937E043FC08D9109
:102210009C9111974817590708F4AC017D0112965B
:102220000D90BC91A02DB3CF80917C0490917D0442
:1022300088159905E1F446175707C8F48091000105
:1022400090910101009741F48DB79EB74091040130
:1022500050910501841B950BE817F907C8F4F0931A
:102260007D04E0937C04F901718360830FC0CB018E
:102270000E94580F7C01009759F0A801BE010E94EE
:102280005411CE010E94ED0FC70104C0CE0102C05F
:1022900080E090E0CDB7DEB7EEE00C940A0F81E06D
:1022A00090E0F8940C946D11FB01DC0102C00190E8
:1022B0000D9241505040D8F70895FB01DC018D91FB
:1022C000019080190110D9F3990B0895FB01DC01ED
:1022D00001900D920020E1F7089510E0C2E6D0E0F1
:1022E00004C0FE010E94520F2196C336D107C9F7E0
:0422F000F894FFCF90
:1022F4000000800480000000000021018E00B9006D
:102304006801EA00C800DC00000000002F021B0284
:102314004102EF011302FF01F0010D0A00696E7022
:1023240075740075706461746500776174657254C6
:10233400656D703A0065633A00776174657220696F
:10234400732066756C6C3F3A00776174657220691E
:102354007320656D7074793F3A007175697400700B
:10236400756D70316F6E0063746C2E7475726E20AF
:102374006F6E2070756D70310070756D70326F6E98
:102384000063746C2E7475726E206F6E2070756DA0
:1023940070320070756D70316F66660063746C2EF8
:1023A4007475726E206F66662070756D7031007082
:1023B400756D70326F66660063746C2E7475726E20
:1023C400206F66662070756D703200736F6C656E79
:1023D4006F69646F6E0063746C2E7475726E206F17
:1023E4006E20736F6C656E6F696400736F6C656EDD
:1023F4006F69646F66660063746C2E7475726E2008
:102404006F666620736F6C656E6F696400676574D0
:1024140074656D70006765742074656D7000676520
:102424007468756D006765742068756D3A0067653A
:1024340074696C6C0067657420696C6C3A0069732C
:1024440066756C6C006973656D707479006765748A
:10245400776174657274656D700067657477617413
:10246400657265630073657454696D6572007365A4
:10247400742074696D657272727272727272006E17
:102484006F742066756C6C006E6F7420656D70746B
:102494007921007374617274007475726E206F6EAA
:1024A4002070756D703120007475726E206F6666D1
:1024B4002070756D703120006D616461206F6666F7
:0224C4002100F5
:107E0000112484B714BE81FFF0D085E080938100F7
:107E100082E08093C00088E18093C10086E0809377
:107E2000C20080E18093C4008EE0C9D0259A86E02C
:107E300020E33CEF91E0309385002093840096BBD3
:107E4000B09BFECF1D9AA8958150A9F7CC24DD24C4
:107E500088248394B5E0AB2EA1E19A2EF3E0BF2EE7
:107E6000A2D0813461F49FD0082FAFD0023811F036
:107E7000013811F484E001C083E08DD089C08234E0
:107E800011F484E103C0853419F485E0A6D080C0E4
:107E9000853579F488D0E82EFF2485D0082F10E0AE
:107EA000102F00270E291F29000F111F8ED06801E7
:107EB0006FC0863521F484E090D080E0DECF843638
:107EC00009F040C070D06FD0082F6DD080E0C81688
:107ED00080E7D80618F4F601B7BEE895C0E0D1E017
:107EE00062D089930C17E1F7F0E0CF16F0E7DF06D8
:107EF00018F0F601B7BEE89568D007B600FCFDCFD4
:107F0000A601A0E0B1E02C9130E011968C91119780
:107F100090E0982F8827822B932B1296FA010C0160
:107F200087BEE89511244E5F5F4FF1E0A038BF0790
:107F300051F7F601A7BEE89507B600FCFDCF97BE46
:107F4000E89526C08437B1F42ED02DD0F82E2BD052
:107F50003CD0F601EF2C8F010F5F1F4F84911BD097
:107F6000EA94F801C1F70894C11CD11CFA94CF0C13
:107F7000D11C0EC0853739F428D08EE10CD085E9AC
:107F80000AD08FE07ACF813511F488E018D01DD067
:107F900080E101D065CF982F8091C00085FFFCCF94
:107FA0009093C60008958091C00087FFFCCF809118
:107FB000C00084FD01C0A8958091C6000895E0E648
:107FC000F0E098E1908380830895EDDF803219F02E
:107FD00088E0F5DFFFCF84E1DECF1F93182FE3DFCA
:107FE0001150E9F7F2DF1F91089580E0E8DFEE27F6
:047FF000FF270994CA
:027FFE00040479
:0400000300007E007B
:00000001FF
