:100000000C9463000C948B000C948B000C948B006C
:100010000C948B000C948B000C948B000C948B0034
:100020000C948B000C94D8060C948B000C948B00D1
:100030000C948B000C948B000C948B000C948B0014
:100040000C948E060C948B000C94AC020C948602DB
:100050000C948B000C948B000C948B000C948B00F4
:100060000C943E070C948B00000000002400270035
:100070002A0000000000250028002B0000000000DE
:1000800023002600290004040404040404040202DA
:100090000202020203030303030301020408102007
:1000A0004080010204081020010204081020000012
:1000B0000008000201000003040700000000000027
:1000C0000000BA0AA60A11241FBECFEFD8E0DEBF97
:1000D000CDBF24E0A2EDB2E001C01D92A038B2076E
:1000E000E1F712E0A0E0B1E0E8E1F3E202C0059040
:1000F0000D92A23DB107D9F710E0C2E6D0E004C0EE
:100100002197FE010E94640FC136D107C9F70E94F2
:10011000400B0C947F110C9400000895CF92DF9255
:10012000EF92FF920F931F93CF93DF936C017A01AD
:100130008B01C0E0D0E0CE15DF0589F0D8016D91CC
:100140008D01D601ED91FC910190F081E02DC60169
:100150000995892B11F47E0102C02196ECCFC701CD
:10016000DF91CF911F910F91FF90EF90DF90CF9093
:100170000895FC01538D448D252F30E0842F90E0AD
:10018000821B930B541710F0CF9608950197089592
:10019000FC01918D828D981761F0828DDF01A80F8F
:1001A000B11D5D968C91928D9F5F9F73928F90E0B1
:1001B00008958FEF9FEF0895FC01918D828D981720
:1001C00031F0828DE80FF11D858D90E008958FEF5D
:1001D0009FEF0895FC01918D228D892F90E0805C26
:1001E0009F4F821B91098F739927089586E993E0A9
:1001F0000E94EA0021E0892B09F420E0822F089573
:10020000FC01848DDF01A80FB11DA35ABF4F2C91B3
:10021000848D90E001968F739927848FA689B78982
:100220002C93A089B1898C9180648C93938D848D5B
:10023000981306C00288F389E02D80818F7D80832A
:100240000895EF92FF920F931F93CF93DF93EC01EA
:1002500081E0888F9B8D8C8D981305C0E889F98982
:10026000808185FD24C0F62E0B8D10E00F5F1F4F9F
:100270000F731127E02E8C8DE8120CC00FB607FC0F
:10028000FACFE889F989808185FFF5CFCE010E94F8
:100290000001F1CF8B8DFE01E80FF11DE35AFF4FF6
:1002A000F0820B8FEA89FB898081806207C0EE892A
:1002B000FF896083E889F98980818064808381E097
:1002C00090E0DF91CF911F910F91FF90EF900895F3
:1002D000CF93DF93EC01888D8823C9F0EA89FB89ED
:1002E000808185FD05C0A889B9898C9186FD0FC0E4
:1002F0000FB607FCF5CF808185FFF2CFA889B989B9
:100300008C9185FFEDCFCE010E940001E7CFDF91F8
:10031000CF91089580E090E0892B29F00E94F600AB
:1003200081110C9400000895833081F028F481300D
:1003300099F08230A1F008958730A9F08830B9F0A3
:100340008430D1F4809180008F7D03C08091800043
:100350008F7780938000089584B58F7702C084B52D
:100360008F7D84BD08958091B0008F7703C0809108
:10037000B0008F7D8093B000089585ED8093BC0020
:100380008091BC0084FDFCCF10926A0308954091D7
:10039000FF02262F30E0240F311D21323105DCF41D
:1003A00020916A032430C9F4FC0180E090E08617B4
:1003B00058F43091FF022191DC01A352BD4FA30FED
:1003C000B11D2C930196F3CF8091FF02680F6093CB
:1003D000FF0280E0089581E0089582E00895089585
:1003E000E0916C0380916B03E81730F4F0E0E3597F
:1003F000FC4F808190E008958FEF9FEF08959091DA
:100400006C0380916B03981750F4E92FF0E0E359E7
:10041000FC4F208130E09F5F90936C0302C02FEF70
:100420003FEFC901089580916B0390E020916C0328
:10043000821B91090895CF93DF9300D0CDB7DEB72B
:10044000CB01642F49835A830E94C7014981842FBD
:100450005A81952F0F900F90DF91CF910895CF93F0
:10046000DF931F92CDB7DEB7698361E0CE010196BD
:100470000E94C70181E090E00F90DF91CF91089535
:10048000089580E090E008950F931F93CF93DF933A
:10049000CDB7DEB7A1970FB6F894DEBF0FBECDBFC4
:1004A0008C01CB01BA01F8011182108213821282F1
:1004B0001582148230E0AE014F5F5F4F0E945C0EE8
:1004C000BE016F5F7F4FC8010E94660AA1960FB6FA
:1004D000F894DEBF0FBECDBFDF91CF911F910F917A
:1004E0000895FC01118210821382128215821482F7
:1004F0006115710551F0FB0101900020E9F731977A
:10050000AF01461B570B0C943B0A08951F920F92A4
:100510000FB60F9211242F933F934F935F936F93D6
:100520007F938F939F93AF93BF93EF93FF9386E94E
:1005300093E00E940001FF91EF91BF91AF919F91D5
:100540008F917F916F915F914F913F912F910F907C
:100550000FBE0F901F9018951F920F920FB60F921B
:1005600011242F938F939F93EF93FF93E091A60312
:10057000F091A7038081E091AC03F091AD0382FD7F
:1005800012C090818091AF038F5F8F732091B00371
:10059000821751F0E091AF03F0E0EA56FC4F958FDF
:1005A0008093AF0301C08081FF91EF919F918F9164
:1005B0002F910F900FBE0F901F901895CF93DF9340
:1005C000282F30E0F901E255FF4F8491F901E656FA
:1005D000FF4FD491F901EA57FF4FC491CC2391F01A
:1005E00081110E949401EC2FF0E0EE0FFF1FE45800
:1005F000FF4FA591B491EC91ED2381E090E021F4BF
:1006000080E002C080E090E0DF91CF9108951F93D9
:10061000CF93DF93282F30E0F901E255FF4F84910B
:10062000F901E656FF4FD491F901EA57FF4FC49103
:10063000CC23C9F0162F81110E949401EC2FF0E019
:10064000EE0FFF1FEE58FF4FA591B4918FB7F894AE
:10065000111105C09C91ED2FE095E92302C0EC91AA
:10066000ED2BEC938FBFDF91CF911F910895CF9326
:10067000DF9390E0FC01E656FF4F2491FC01EA571E
:10068000FF4F8491882361F190E0880F991FFC014E
:10069000E859FF4FC591D491FC01EE58FF4FA59149
:1006A000B491611109C09FB7F89488812095822385
:1006B0008883EC912E230BC0623061F49FB7F894CD
:1006C0003881822F809583238883EC912E2B2C9365
:1006D0009FBF06C08FB7F894E8812E2B28838FBF69
:1006E000DF91CF9108958E3008F08E50877080642E
:1006F00080937C0080917A00806480937A0080915E
:100700007A0086FDFCCF809178002091790090E0FE
:10071000922B0895CF92DF92EF92FF920F931F9347
:10072000CF93DF9300D000D000D0CDB7DEB78AE200
:1007300091E00E94FD0886E993E00E94EA00181605
:1007400019060CF0A2C086E993E00E94EA00181690
:10075000190654F486E993E00E94C800682F85E5E5
:1007600094E00E940B0AEFCF2091590430915A0473
:10077000C90102978217930730F4E0915504F09174
:100780005604309729F41092D202E2EDF2E002C052
:10079000E80FF91F10821A8219821C821B821E82A6
:1007A0001D8260915504709156046115710541F0E8
:1007B0004091590450915A04CE0101960E943B0A7F
:1007C000CD80DE80E12CF12C00E010E0EC14FD0483
:1007D00054F58D819E81E816F90680F489819A810D
:1007E000009761F0FC01EE0DFF1D6081603239F46D
:1007F0000F5F1F4F0630110594F039C060E00115FE
:10080000110519F487E694E008C00130110519F4C8
:1008100081E694E002C08BE594E00E940B0A8FEF22
:10082000E81AF80AD3CF60E087E694E00E940B0A4A
:1008300060E081E694E00E940B0A20915F04309111
:100840006004C90102978217930730F4E0915B04BA
:10085000F0915C04309729F41092D202E2EDF2E0BC
:1008600002C0E80FF91F10820F5F1F4F02C00FEF89
:100870001FEF1093DC020093DB02CE0101960E9471
:10088000870A85E594E00E94E8088091DB02909158
:10089000DC028130910509F0B9C180E391E00E944A
:1008A0000B09882309F491C00E948A090DE813E01E
:1008B00090916B0380916C03981769F083E394E047
:1008C0000E94FF01F80181938F010E947709F3E0F4
:1008D00007391F0769F760E070E0CB010E94130F32
:1008E0006093D7027093D8028093D9029093DA0272
:1008F00087E391E00E9495086091D7027091D80239
:100900008091D9029091DA020E9468094091D70241
:100910005091D8026091D9027091DA0222E0CE01A2
:1009200001960E944402CE0101960E942B09CE013D
:1009300001960E94870A8DE694E00E94E8082091C3
:1009400091038091920390E0982F8827092E000C44
:10095000AA0BBB0B822B8093D3029093D402A0935B
:10096000D502B093D60282E491E00E94950860918E
:10097000D3027091D4028091D5029091D6020E9448
:1009800068094091D3025091D4026091D5027091D0
:10099000D60222E0CE0101960E944402CE010196C9
:1009A0000E942B09CE0101960E94870A8DE694E0F1
:1009B0000E94E80886E491E00E94950880919503E2
:1009C00080FF67C180E992E066C187E691E00E94FE
:1009D0000B0981116AC18CE691E00E940B09882302
:1009E00039F061E085E00E94070384E791E00CC0E4
:1009F00086E891E00E940B09882359F061E086E0C7
:100A00000E9407038EE891E00E94950881EA92E037
:100A10004AC180EA91E00E940B09882339F060E026
:100A200085E00E94070389EA91E0EECF8CEB91E02C
:100A30000E940B09882339F060E086E00E940703DA
:100A400085EC91E0E1CF88ED91E00E940B098823CD
:100A500099F061E080914D040E94070383EE91E0DC
:100A60000E94950881EA92E00E94950880E00E9429
:100A700073030E94D20919C188EF91E00E940B090B
:100A8000882341F060E080914D040E94070384E0D8
:100A900092E0BACF8AE192E00E940B09882319F014
:100AA00082E292E0B1CF8BE292E00E940B098823B0
:100AB00019F082E392E0A8CF8BE392E00E940B0949
:100AC000882339F0809153040E94730382E492E0FA
:100AD0009BCF8BE492E00E940B09882379F00E945F
:100AE0008C0A0E94120E86E491E00E949508809183
:100AF000950380FFD6C080E992E0D5C082E592E000
:100B00000E940B09882379F00E948C0A0E94120E21
:100B100086E591E00E9495088091950380FDBEC016
:100B200089E992E0C0C08AE592E00E940B0988231F
:100B300041F10E948C0A60E070E0CB010E94130F2B
:100B40006093D7027093D8028093D9029093DA020F
:100B50000E94120E87E391E00E9495086091D702EF
:100B60007091D8028091D9029091DA020E946809AE
:100B70004091D7025091D8026091D9027091DA0267
:100B800035C087E692E00E940B09882309F48DC0E6
:100B90000E948C0A209191038091920390E0982FFB
:100BA0008827092E000CAA0BBB0B822B8093D30243
:100BB0009093D402A093D502B093D6020E94120E55
:100BC00082E491E00E9495086091D3027091D40272
:100BD0008091D5029091D6020E9468094091D3027B
:100BE0005091D4026091D5027091D60222E0CE01DC
:100BF00001960E944402CE0101960E942B09CE016B
:100C000001960E94870A8DE694E040C0039709F0A0
:100C10004CC082E792E00E940B09882369F18BE7C0
:100C200092E00E94FD088091610490916204009717
:100C300019F00E94200E03C060E070E0CB016093C9
:100C40004003709341038093420390934303809148
:100C50005B0490915C04009719F00E94200E03C081
:100C600060E070E0CB0160933C0370933D038093A0
:100C70003E0390933F0319C087E694E00E94E80882
:100C800081E694E00E94E8088BE594E00E94E80881
:100C90000CC08CE892E00E9495083ACF85E992E07A
:100CA00002C08CE892E00E9495081092DC0210923B
:100CB000DB0262EA72E085E594E00E94660A62EA7D
:100CC00072E087E694E00E94660A62EA72E081E6DA
:100CD00094E00E94660A62EA72E08BE594E00E946A
:100CE000660A80E090E026960FB6F894DEBF0FBE4D
:100CF000CDBFDF91CF911F910F91FF90EF90DF90CB
:100D0000CF9008952FB7F8946091290370912A032A
:100D100080912B0390912C032FBF08951F920F9267
:100D20000FB60F9211242F933F938F939F93AF93FE
:100D3000BF938091290390912A03A0912B03B09136
:100D40002C033091280323E0230F2D3720F4019644
:100D5000A11DB11D05C026E8230F0296A11DB11DDE
:100D6000209328038093290390932A03A0932B03B5
:100D7000B0932C038091240390912503A091260326
:100D8000B09127030196A11DB11D80932403909378
:100D90002503A0932603B0932703BF91AF919F91A2
:100DA0008F913F912F910F900FBE0F901F9018952C
:100DB0001F920F920FB60F9211242F933F934F93D0
:100DC0005F936F937F938F939F93AF93BF93EF93B3
:100DD000FF9380913503909136038093B200809108
:100DE000380390913903A0913A03B0913B030196E7
:100DF000A11DB11D8093380390933903A0933A034A
:100E0000B0933B03409138035091390360913A030A
:100E100070913B038091310390913203A091330391
:100E2000B0913403481759076A077B07B0F08091E7
:100E30003703811112C081E0809337031092380389
:100E40001092390310923A0310923B03E0912F0362
:100E5000F0913003099510923703FF91EF91BF9104
:100E6000AF919F918F917F916F915F914F913F9142
:100E70002F910F900FBE0F901F9018951F920F92F9
:100E80000FB60F9211242F933F934F935F936F935D
:100E90007F938F939F93AF93BF93EF93FF93809133
:100EA000B900887F803609F49CC068F5883209F45F
:100EB0005BC090F4803109F454C038F4882309F4FD
:100EC000F6C0883009F44DC0F6C0883109F44CC032
:100ED000803209F45DC0EFC0803409F468C048F482
:100EE000803309F455C0883309F0E5C08093680366
:100EF000D8C0803509F44FC0883509F45DC0883406
:100F000009F0D9C0D6C0883909F4C7C0A8F4883719
:100F100009F467C038F4883609F463C0803709F4EF
:100F200060C0C9C0883809F4B8C0803909F45FC00E
:100F3000803809F0C0C05BC0803B09F486C038F43B
:100F4000803A09F466C0883A09F47FC0B4C0803C96
:100F500009F4A7C0883C09F4A4C0883B09F48AC0FE
:100F6000AAC08091650310C09091670380916603C9
:100F7000981770F5E091670381E08E0F8093670307
:100F8000F0E0EC5BFC4F80818093BB0085EC86C079
:100F9000809368038EC0E091670381E08E0F809399
:100FA00067038091BB00F0E0EC5BFC4F8083909185
:100FB0006703809166036EC0E091670381E08E0F46
:100FC000809367038091BB00F0E0EC5BFC4F808373
:100FD0008091690381116DC081E08093640384EA8C
:100FE00061C083E080936A0310922303CFCF809186
:100FF0002303803208F051C0E091230381E08E0F7B
:10100000809323038091BB00F0E0ED5FFC4F808371
:10101000BDCF85EC8093BC0010926A0380912303BE
:10102000803230F4E0912303F0E0ED5FFC4F10825A
:101030006091230370E0E0910103F091020383E0EB
:1010400093E009951092230336C084E080936A03ED
:10105000109200031092FF02E091FD02F091FE0257
:1010600009958091FF02811105C081E08093FF0204
:101070001092DD02E091000381E08E0F8093000367
:10108000F0E0E352FD4F80818093BB00909100031C
:101090008091FF02981708F479CF85E88093BC000F
:1010A0000AC085EC8093BC0010926A0304C01092C1
:1010B00068030E94BD01FF91EF91BF91AF919F9195
:1010C0008F917F916F915F914F913F912F910F90F1
:1010D0000FBE0F901F9018950E9461110F931F93E0
:1010E000CF93DF93EC0188819981009729F02A81C1
:1010F0003B812617370788F48B016F5F7F4F0E9473
:101100009710009761F0998388831B830A832C8151
:101110003D81232B11F4FC01108281E001C080E0AD
:10112000DF91CF911F910F910895009769F0FC0115
:1011300001900020E9F73197AF01481B590BBC0122
:1011400086E993E00C948E0080E090E008958F9201
:101150009F92AF92BF920F931F93CF93DF93CDB720
:10116000DEB7A1970FB6F894DEBF0FBECDBF19A2B0
:10117000423008F44AE08E010F5D1F4F842E912CFF
:10118000A12CB12CA50194010E94420FE62FB901B8
:10119000CA0101501109EA3014F4E05D01C0E95CB4
:1011A000D801EC93232B242B252B61F7C8010E9437
:1011B0009508A1960FB6F894DEBF0FBECDBFDF91A4
:1011C000CF911F910F91BF90AF909F908F900895F6
:1011D000CF93DF93FC01448155816081718186E961
:1011E00093E00E948E00EC0180EA92E00E94950854
:1011F0008C0F9D1FDF91CF910895CF93DF930E94B5
:101200009508EC0180EA92E00E9495088C0F9D1FE2
:10121000DF91CF910895FC0180916B0490916C0453
:10122000892B21F421E0309749F413C080916704A1
:1012300090916804309731F421E0FC01808188238B
:1012400041F006C0BF010E946F1121E0892B09F017
:1012500020E0822F0895CF93DF93EC0180916D04FD
:1012600090916E040097C9F06881798161157105CC
:1012700091F040916F04509170042C813D81421790
:10128000530748F00E9478118C819D8190937204DD
:101290008093710418C00E94FF0F888199819093F8
:1012A0006E0480936D048A819B8190937004809377
:1012B0006F048C819D8190937204809371041982D4
:1012C00018821B821A821D821C82DF91CF910895A1
:1012D000CF93DF934AE00E94A708EC0180EA92E0F6
:1012E0000E9495088C0F9D1FDF91CF910895CF9399
:1012F000DF93682F70E080E090E04AE00E94A7084A
:10130000EC0180EA92E00E9495088C0F9D1FDF910E
:10131000CF91089580916A038111FCCF81E0809381
:101320006A03809369039FEF9093680310926703A9
:1013300098E09093660380936503809165038061D4
:101340008093650380916403813061F4109264039B
:10135000809165038093BB008091BC0083FDF8CF32
:1013600085EC01C085EE8093BC0080916A038130DA
:10137000E1F380916703893018F48091670301C01D
:1013800089E0A4E4B3E02DE633E0F9019E2F921B3F
:10139000981718F49D919193F9CF10926C03809354
:1013A0006B030895CF92DF92EF92FF92CF93DF937A
:1013B0006C01990FEE08FF08F7FE1AC0E091960342
:1013C000F09197030190F081E02D6DE286E993E0C2
:1013D0000995EC0166277727CB016C197D098E09E9
:1013E0009F094AE00E94A7087C01EC0EFD1E06C082
:1013F0004AE0C701B6010E94A7087C0180EA92E09A
:101400000E9495088E0D9F1DDF91CF91FF90EF9068
:10141000DF90CF900895EF92FF920F931F93CF9399
:10142000DF9300D0CDB7DEB78C0169831A82FC014F
:10143000E480F580FFEFEF1AFF0AB7010E946E0803
:10144000882381F0F8012081318184819581BE015A
:101450006F5F7F4F820F931F0E947811F801F58212
:10146000E48281E00F900F90DF91CF911F910F9157
:10147000FF90EF900895EF92FF920F931F93CF93F9
:10148000DF93EC017B018A01BA010E946E0828817A
:10149000398181110DC02115310519F0C9010E9452
:1014A000FF0F198218821D821C821B821A8206C0BD
:1014B0001D830C83B701C9010E947811CE01DF9111
:1014C000CF911F910F91FF90EF900895CF93DF93ED
:1014D000EC016115710559F0FB0101900020E9F75D
:1014E0003197AF01461B570B0E943B0A0CC0888105
:1014F0009981009711F00E94FF0F198218821D82B6
:101500001C821B821A82CE01DF91CF910895FC01CB
:10151000808191810C94FF0FCF93DF930E948A0901
:10152000CDE8D3E090916B0380916C03981759F04C
:1015300083E394E00E94FF0189930E94770983E08E
:10154000C739D80779F7DF91CF91089585E594E001
:101550000E94870A8BE594E00E94870A81E694E066
:101560000E94870A87E694E00E94870A8DE694E04D
:101570000C94870ACF93DF93E6E9F3E0138212829B
:1015800088EE93E0A0E0B0E084839583A683B783E0
:101590002AE031E03183208325EC30E03587248751
:1015A00024EC30E03787268720EC30E0318B208B2D
:1015B00021EC30E0338B228B22EC30E0358B248B16
:1015C00026EC30E0378B268B118E128E138E148E04
:1015D000E3E3F4E01382128284839583A683B783C6
:1015E0008CE191E09183808362EA72E08DE694E081
:1015F0000E94710262EA72E087E694E00E94710242
:1016000062EA72E081E694E00E94710262EA72E0AE
:101610008BE594E00E94710262EA72E085E594E055
:101620000E947102CFE3D4E0188219821A821B82D1
:101630001C821D821E821F821986188685E090E01A
:101640009B878A8726E030E03D872C879F878E879F
:10165000198A188A81E090E09B8B8A8B88E190E060
:101660009D8B8C8B61E085E00E94370361E08C8567
:101670000E94370361E08E85DF91CF910C94370390
:10168000CF93DF9300D000D0CDB7DEB7789484B588
:10169000826084BD84B5816084BD85B5826085BD6E
:1016A00085B5816085BD80916E00816080936E00FC
:1016B00010928100809181008260809381008091EE
:1016C000810081608093810080918000816080939F
:1016D00080008091B10084608093B1008091B0005F
:1016E00081608093B00080917A00846080937A005A
:1016F00080917A00826080937A0080917A00816084
:1017000080937A0080917A00806880937A001092AA
:10171000C10010926C0310926B0310922E03109272
:101720002D0310926A0381E0809369031092640391
:1017300061E082E10E94070361E083E10E94070308
:101740008091B9008E7F8093B9008091B9008D7F20
:101750008093B90088E48093B80085E48093BC004E
:1017600061E085E00E94370361E086E00E94370374
:1017700061E085E00E94370360E083E00E94370368
:1017800060E082E00E94370360E080E00E9437035F
:1017900060E081E00E94370360E088E10E94370347
:1017A000809170008E7F809370008091B0008C7F5C
:1017B0008093B0008091B100877F8093B1008091C9
:1017C000B6008F7D8093B600809170008D7F8093EE
:1017D00070008091B10084608093B1008091B1006D
:1017E0008C7F8093B10086E090E0909336038093E5
:1017F000350388EB9BE0A0E0B0E080933103909349
:101800003203A0933303B09334038AE893E09093B8
:10181000300380932F03E091A603F091A70382E0A9
:101820008083E091A203F091A3031082E091A403CE
:10183000F091A5038FEC80831092AE03E091AA0390
:10184000F091AB0386E08083E091A803F091A903B7
:10185000808180618083E091A803F091A903808159
:1018600088608083E091A803F091A903808180685B
:101870008083E091A803F091A90380818F7D80830C
:1018800083EA92E00E94950810923803109239037F
:1018900010923A0310923B03109237038091350364
:1018A000909136038093B2008091700081608093A4
:1018B000700083E00E94DE02019729F482E00E941A
:1018C000DE020197D9F083E00E94DE02892B39F510
:1018D00082E00E94DE02019711F58CE390E0A0E027
:1018E000B0E08093400390934103A0934203B093F0
:1018F00043038CE192E0A0E0B0E02DC08FE090E0E7
:10190000A0E0B0E08093400390934103A093420392
:10191000B093430389E492E0A0E0B0E01CC083E010
:101920000E94DE02019709F005C182E00E94DE02FA
:10193000892B09F0FFC088E691E0A0E0B0E0809339
:10194000400390934103A0934203B093430380EF7D
:1019500090E0A0E0B0E080933C0390933D03A0931F
:101960003E03B0933F038FE0882E912CA12CB12C25
:1019700099E4492E92E0592E612C712C83E00E944B
:10198000DE02019709F0F3C082E00E94DE020197B7
:1019900009F0EDC08092400390924103A09242036F
:1019A000B092430340923C0350923D0360923E0349
:1019B00070923F030E948206C0907804D090790410
:1019C000E0907A04F0907B04C114D104E104F104A6
:1019D00009F466C080917704882309F440C00E940E
:1019E00082069B01AC012C193D094E095F09690172
:1019F0007A0120914003309141034091420350917C
:101A00004303AAE0B0E00E94C20EC616D706E8065D
:101A1000F90608F469C088EB92E00E94950860918D
:101A20003C0370913D0380913E0390913F030E94DF
:101A3000680982E00E9473030E94D20960E085E099
:101A40000E9407030E9482066093780470937904D1
:101A500080937A0490937B041092770445C00E948F
:101A600082069B01AC012C193D094E095F092983AF
:101A70003A834B835C8320913C0330913D0340913A
:101A80003E0350913F03AAE0B0E00E94C20E2981BC
:101A90003A814B815C81261737074807590720F1A7
:101AA00089EA92E00E949508609140037091410399
:101AB00080914203909143030E94680982E00E9452
:101AC00073030E94D20961E085E00E9407030E942F
:101AD0008206609378047093790480937A049093DB
:101AE0007B0481E0809377040E9482060091730456
:101AF000109174042091750430917604DC01CB01BF
:101B0000801B910BA20BB30B81319742A105B1054C
:101B100070F088EC92E00E94FD080E9482066093BB
:101B200073047093740480937504909376040E94F8
:101B30008A0124CF83E00E94DE02892B09F013CFB3
:101B400082E00E94DE02892B09F00DCF88E592E049
:101B5000A0E0B0E08093400390934103A093420340
:101B6000B093430384E690E0A0E0B0E0F4CE83E0DD
:101B70000E94DE02892BB1F482E00E94DE0201970E
:101B800089F48CE390E0A0E0B0E080934003909370
:101B90004103A0934203B09343032CE132E040E0C1
:101BA00050E01AC083E00E94DE020197F1F482E067
:101BB0000E94DE02892BC9F488E691E0A0E0B0E043
:101BC0008093400390934103A0934203B093430357
:101BD00020EF30E040E050E020933C0330933D03A1
:101BE00040933E0350933F03E5CE83E00E94DE0224
:101BF000892B09F0DFCE82E00E94DE02892B09F0FA
:101C0000D9CE88E592E0A0E0B0E0809340039093C5
:101C10004103A0934203B093430324E630E040E045
:101C200050E0DACFCF93DF93CDE8D3E089910E94E3
:101C3000770983E0C639D807C9F7DF91CF910895B6
:101C40001F93FC0199278827BC01E8941191103259
:101C5000E9F3193010F01E30C8F31B3251F01D3279
:101C600049F4689406C00E94470E610F711D811DE2
:101C7000911D119110531A30B0F33EF49095809558
:101C8000709561957F4F8F4F9F4F1F910895592FEA
:101C9000482F372F262F660F771F881F991F660F33
:101CA000771F881F991F620F731F841F951F660F70
:101CB000771F881F991F08952532310520F422309F
:101CC00010F00C94670EFA011082CA010895BB2728
:101CD000FA01A62F6217710581059105330B30FBC0
:101CE00066F0AA27660F771F881F991FAA1FA217E1
:101CF00010F0A21B63953850A9F7A05DAA3308F035
:101D0000A95DA19336F7B111B1931082CA010C9469
:101D1000890EDC01FC01672F71917723E1F732977F
:101D200004C07C916D9370836291AE17BF07C8F3B6
:101D3000089557FD9058440F551F59F05F3F71F0BB
:101D40004795880F97FB991F61F09F3F79F0879522
:101D50000895121613061406551FF2CF4695F1DFAB
:101D600008C0161617061806991FF1CF869571053B
:101D7000610508940895E894BB2766277727CB016F
:101D800097F908950E94040FA59F900DB49F900DA0
:101D9000A49F800D911D112408952F923F924F9280
:101DA0005F926F927F928F929F92AF92BF92CF92EB
:101DB000DF92EF92FF920F931F93CF93DF93CDB7F4
:101DC000DEB7CA1BDB0B0FB6F894DEBF0FBECDBF6C
:101DD00009942A88398848885F846E847D848C843D
:101DE0009B84AA84B984C884DF80EE80FD800C8146
:101DF0001B81AA81B981CE0FD11D0FB6F894DEBF29
:101E00000FBECDBFED010895A29FB001B39FC001E9
:101E1000A39F700D811D1124911DB29F700D811D16
:101E20001124911D08950E94A10E88F09F5798F0EB
:101E3000B92F9927B751B0F0E1F0660F771F881FCF
:101E4000991F1AF0BA95C9F714C0B13091F00E94E9
:101E5000BB0EB1E008950C94BB0E672F782F882736
:101E6000B85F39F0B93FCCF3869577956795B39510
:101E7000D9F73EF490958095709561957F4F8F4F7F
:101E80009F4F0895A1E21A2EAA1BBB1BFD010DC096
:101E9000AA1FBB1FEE1FFF1FA217B307E407F5071A
:101EA00020F0A21BB30BE40BF50B661F771F881FF6
:101EB000991F1A9469F760957095809590959B018C
:101EC000AC01BD01CF010895EE0FFF1F0590F49105
:101ED000E02D0994CF93DF938230910510F482E0D6
:101EE00090E0E0917E04F0917F0420E030E0C0E0DB
:101EF000D0E0309711F14081518148175907C0F067
:101F00004817590761F482819381209719F09B83C8
:101F10008A832BC090937F0480937E0426C0211572
:101F2000310519F04217530718F49A01BE01DF0179
:101F3000EF010280F381E02DDCCF2115310509F19D
:101F4000281B390B2430310590F412968D919C9109
:101F500013976115710521F0FB019383828304C0FF
:101F600090937F0480937E04FD01329644C0FD016E
:101F7000E20FF31F81939193225031092D933C93EB
:101F80003AC020917C0430917D04232B41F42091B0
:101F900002013091030130937D0420937C04209151
:101FA0000001309101012115310541F42DB73EB7F3
:101FB0004091040150910501241B350BE0917C04F4
:101FC000F0917D04E217F307A0F42E1B3F0B2817B6
:101FD000390778F0AC014E5F5F4F2417350748F0A2
:101FE0004E0F5F1F50937D0440937C048193919327
:101FF00002C0E0E0F0E0CF01DF91CF9108950F93B0
:102000001F93CF93DF93009709F48CC0FC013297A4
:102010001382128200917E0410917F040115110534
:1020200081F420813181820F931F20917C043091B3
:102030007D042817390779F5F0937D04E0937C043B
:1020400071C0D80140E050E0AE17BF0750F41296BF
:102050002D913C911397AD012115310509F1D9015D
:10206000F3CF9D01DA013383228360817181860F72
:10207000971F8217930769F4EC0128813981260F95
:10208000371F2E5F3F4F318320838A819B8193834B
:102090008283452B29F4F0937F04E0937E0442C0B1
:1020A0001396FC93EE931297ED01499159919E017D
:1020B000240F351FE217F30771F480819181840F9B
:1020C000951F029611969C938E938281938113960D
:1020D0009C938E931297E0E0F0E0D80112968D91D8
:1020E0009C911397009719F0F8018C01F6CF8D9110
:1020F0009C9198012E5F3F4F820F931F20917C048B
:1021000030917D042817390769F4309729F410922B
:102110007F0410927E0402C01382128210937D0409
:1021200000937C04DF91CF911F910F910895A0E05F
:10213000B0E0EDE9F0E10C94D10EEC01009721F450
:10214000CB010E946A0FB8C0FC01E60FF71F9C018B
:1021500022503109E217F30708F4ACC0D9010D9100
:102160001C91119706171707B0F00530110508F4F8
:102170009FC0C80104978617970708F499C00250BA
:102180001109061B170B019311936D937C93CF01DB
:102190000E94FF0F8DC05B01A01AB10A4C01800E96
:1021A000911EA0917E04B0917F0440E050E0E12CAC
:1021B000F12C109709F44AC0A815B905D1F56D9016
:1021C0007C901197630182E0C80ED11CCA14DB0415
:1021D00080F1A3014A195B096A0182E0C80ED11C93
:1021E0001296BC9012971396AC91B5E0CB16D10421
:1021F00040F0B282A38351834083D9016D937C93D5
:102200000AC00E5F1F4FC301800F911FF901918318
:102210008083EB2DFA2FE114F10431F0D7011396EE
:10222000FC93EE93129744C0F0937F04E0937E04F6
:102230003FC08D919C9111974817590708F4AC0144
:102240007D0112960D90BC91A02DB3CF80917C049E
:1022500090917D0488159905E1F446175707C8F455
:102260008091000190910101009741F48DB79EB7D4
:102270004091040150910501841B950BE817F90763
:10228000C8F4F0937D04E0937C04F90171836083CA
:102290000FC0CB010E946A0F7C01009759F0A80182
:1022A000BE010E946611CE010E94FF0FC70104C04B
:1022B000CE0102C080E090E0CDB7DEB7EEE00C9436
:1022C000ED0E81E090E0F8940C947F11FB01DC01AD
:1022D00002C001900D9241505040D8F70895FB0183
:1022E000DC018D91019080190110D9F3990B0895AB
:1022F000FB01DC0101900D920020E1F7089510E050
:10230000C2E6D0E004C0FE010E94640F2196C336ED
:08231000D107C9F7F894FFCFD3
:102318000000800480000000000021018E00B90048
:102328006801EA00C800DC00000000002F021B0260
:102338004102EF011302FF01F001696E707574002C
:1023480075706461746500776174657254656D7049
:102358003A0065633A007761746572206973206694
:10236800756C6C3F3A0077617465722069732065FB
:102378006D7074793F3A00717569740070756D708D
:10238800316F6E0063746C2E7475726E206F6E20E0
:1023980070756D70310070756D70326F6E0063749A
:1023A8006C2E7475726E206F6E2070756D703200B1
:1023B80070756D70316F66660063746C2E7475721B
:1023C8006E206F66662070756D70310070756D7067
:1023D800326F66660063746C2E7475726E206F6659
:1023E800662070756D703200736F6C656E6F69640E
:1023F8006F6E0063746C2E7475726E206F6E20732E
:102408006F6C656E6F696400736F6C656E6F69647D
:102418006F66660063746C2E7475726E206F6666E4
:1024280020736F6C656E6F69640067657474656DA1
:1024380070006765742074656D70006765746875F1
:102448006D006765742068756D3A00676574696C1E
:102458006C0067657420696C6C3A00697366756C0A
:102468006C006973656D7074790067657477617461
:10247800657274656D7000676574776174657265FF
:10248800630073657454696D6572007365742074B4
:10249800696D657272727272727272006E6F7420F8
:1024A80066756C6C006E6F7420656D7074792100B0
:1024B8000D0A007374617274007475726E206F6E09
:1024C8002070756D703120007475726E206F6666AD
:1024D8002070756D7031200073656E73696E6721A9
:0224E8000000F2
:00000001FF
