:100000000C9462000C948A000C948A000C948A0070
:100010000C948A000C948A000C948A000C94B60507
:100020000C948A000C948A000C948A000C948A0028
:100030000C948A000C948A000C948A000C948A0018
:100040000C943E040C948A000C940C040C94E6036B
:100050000C948A000C948A000C948A000C948A00F8
:100060000C9488040C948A000000000024002700EF
:100070002A0000000000250028002B0000000000DE
:1000800023002600290004040404040404040202DA
:100090000202020203030303030301020408102007
:1000A0004080010204081020010204081020000012
:1000B0000008000201000003040700000000000027
:1000C00000002C0611241FBECFEFD8E0DEBFCDBF4D
:1000D00011E0A0E0B1E0E4E2FFE002C005900D9283
:1000E000A632B107D9F722E0A6E2B1E001C01D9225
:1000F000AB38B207E1F710E0C2E6D0E004C02197C8
:10010000FE010E948507C136D107C9F70E94650626
:100110000C9490070C9400008091000120E4829FD1
:10012000C001112480937C0080917A0080648093C8
:100130007A0080917A0086FDFCCF80917800209132
:10014000790090E0922B0895E091E001F091E101B7
:10015000309729F01092D9011092D801099408958E
:10016000CF93DF93AC01E0915301F09154013097AC
:10017000F1F09091DB018091DA019817C0F090E0E6
:10018000292F30E02617370754F4D901AD5CBE4F54
:10019000EA01C20FD31F88818C939F5FF1CF109229
:1001A000DB016093DA01CB01DF91CF910994DF91FC
:1001B000CF910895CF92DF92EF92FF920F931F930A
:1001C000CF93DF936C017A018B01C0E0D0E0CE15B4
:1001D000DF0589F0D8016D918D01D601ED91FC917B
:1001E0000190F081E02DC6010995892B11F47E0163
:1001F00002C02196ECCFC701DF91CF911F910F91E3
:10020000FF90EF90DF90CF900895FC01538D448DC7
:10021000252F30E0842F90E0821B930B541710F0B1
:10022000CF96089501970895FC01918D828D9817BE
:1002300061F0828DDF01A80FB11D5D968C91928DCA
:100240009F5F9F73928F90E008958FEF9FEF0895C7
:10025000FC01918D828D981731F0828DE80FF11D90
:10026000858D90E008958FEF9FEF0895FC01918DAB
:10027000228D892F90E0805C9F4F821B91098F73A4
:100280009927089582EE91E00E94360121E0892BA2
:1002900009F420E0822F0895FC01848DDF01A80F6E
:1002A000B11DA35ABF4F2C91848D90E001968F739E
:1002B0009927848FA689B7892C93A089B1898C91BD
:1002C00080648C93938D848D981306C00288F38983
:1002D000E02D80818F7D80830895EF92FF920F93B0
:1002E0001F93CF93DF93EC0181E0888F9B8D8C8DE2
:1002F000981305C0E889F989808185FD24C0F62E10
:100300000B8D10E00F5F1F4F0F731127E02E8C8DA8
:10031000E8120CC00FB607FCFACFE889F989808192
:1003200085FFF5CFCE010E944C01F1CF8B8DFE01F0
:10033000E80FF11DE35AFF4FF0820B8FEA89FB892A
:100340008081806207C0EE89FF896083E889F9892E
:1003500080818064808381E090E0DF91CF911F9164
:100360000F91FF90EF900895CF93DF93EC01888D6C
:100370008823C9F0EA89FB89808185FD05C0A889A9
:10038000B9898C9186FD0FC00FB607FCF5CF80812F
:1003900085FFF2CFA889B9898C9185FFEDCFCE0179
:1003A0000E944C01E7CFDF91CF91089580E090E06B
:1003B000892B29F00E94420181110C9400000895BC
:1003C000833081F028F4813099F08230A1F00895D3
:1003D0008730A9F08830B9F08430D1F48091800062
:1003E0008F7D03C0809180008F7780938000089577
:1003F00084B58F7702C084B58F7D84BD08958091C8
:10040000B0008F7703C08091B0008F7D8093B000E3
:100410000895CF93DF93282F30E0F901E255FF4F85
:100420008491F901E656FF4FD491F901EA57FF4F45
:10043000C491CC2391F081110E94E001EC2FF0E0F7
:10044000EE0FFF1FE458FF4FA591B491EC91ED23FF
:1004500081E090E021F480E002C080E090E0DF9154
:10046000CF9108951F93CF93DF93282F30E0F901A8
:10047000E255FF4F8491F901E656FF4FD491F901FF
:10048000EA57FF4FC491CC23C9F0162F81110E9467
:10049000E001EC2FF0E0EE0FFF1FEE58FF4FA591AB
:1004A000B4918FB7F894111105C09C91ED2FE09590
:1004B000E92302C0EC91ED2BEC938FBFDF91CF913C
:1004C0001F910895CF93DF9390E0FC01E656FF4F14
:1004D0002491FC01EA57FF4F8491882361F190E059
:1004E000880F991FFC01E859FF4FC591D491FC0179
:1004F000EE58FF4FA591B491611109C09FB7F894D0
:100500008881209582238883EC912E230BC0623052
:1005100061F49FB7F8943881822F80958323888374
:10052000EC912E2B2C939FBF06C08FB7F894E881D7
:100530002E2B28838FBFDF91CF9108953FB7F8947A
:100540008091C1019091C201A091C301B091C401F9
:1005500026B5A89B05C02F3F19F00196A11DB11D1E
:100560003FBFBA2FA92F982F8827820F911DA11D59
:10057000B11DBC01CD0142E0660F771F881F991F96
:100580004A95D1F708958F929F92AF92BF92CF92E2
:10059000DF92EF92FF920E949E024B015C0185E088
:1005A000C82ED12CE12CF12C0E949E02DC01CB0143
:1005B00088199909AA09BB09883E9340A105B1058C
:1005C00058F021E0C21AD108E108F10888EE880E3F
:1005D00083E0981EA11CB11CC114D104E104F104F4
:1005E00019F7FF90EF90DF90CF90BF90AF909F9062
:1005F0008F90089585ED8093BC008091BC0084FDB0
:10060000FCCF1092D701089540917501262F30E05C
:10061000240F311D21323105DCF42091D701243023
:10062000C9F4FC0180E090E0861758F43091750120
:100630002191DC01AB5ABE4FA30FB11D2C93019643
:10064000F3CF80917501680F6093750180E0089584
:1006500081E0089582E008950895E091DB018091A2
:10066000DA01E81730F4F0E0ED5CFE4F808190E0B5
:1006700008958FEF9FEF08959091DB018091DA014B
:10068000981750F4E92FF0E0ED5CFE4F208130E048
:100690009F5F9093DB0102C02FEF3FEFC9010895E8
:1006A0008091DA0190E02091DB01821B910908958D
:1006B000CF93DF9300D0CDB7DEB7CB01642F498352
:1006C0005A830E9404034981842F5A81952F0F90E9
:1006D0000F90DF91CF910895CF93DF931F92CDB705
:1006E000DEB7698361E0CE0101960E94040381E0D8
:1006F00090E00F90DF91CF910895089580E090E011
:100700000895CF931092260110922701109228018C
:100710001092290110922A0110922B0110922C01A3
:1007200010922D0110922E0161E089E00E943202A8
:100730000E94C3028091CC018823E1F32FB7F89483
:1007400080912F0190913001A0913101B09132013F
:100750001092CC012FBF80932A0190932B01A0937C
:100760002C01B0932D010E948C000E948C00092E58
:10077000000CAA0BBB0B8093260190932701A0933A
:100780002801B093290161E08AE00E9432020E94B0
:10079000C30287E00E940902019711F4C2E001C080
:1007A000C0E088E00E94090221E0019709F020E002
:1007B000C22BC0932E0149E050E066E271E08FE762
:1007C00092E0CF910C9458030E948B071F920F92D6
:1007D0000FB60F9211242F933F934F935F936F9314
:1007E0007F938F939F93AF93BF93EF93FF9382EE8B
:1007F00091E00E944C01FF91EF91BF91AF919F91C9
:100800008F917F916F915F914F913F912F910F90B9
:100810000FBE0F901F9018951F920F920FB60F9258
:1008200011242F938F939F93EF93FF93E091F20105
:10083000F091F3018081E091F801F091F90182FDDE
:1008400012C090818091FB018F5F8F732091FC011A
:10085000821751F0E091FB01F0E0EE51FE4F958FD1
:100860008093FB0101C08081FF91EF919F918F9157
:100870002F910F900FBE0F901F9018951F920F92FF
:100880000FB60F9211242F933F938F939F93AF93A3
:10089000BF938091BD019091BE01A091BF01B09125
:1008A000C0013091BC0123E0230F2D3720F40196C5
:1008B000A11DB11D05C026E8230F0296A11DB11D83
:1008C0002093BC018093BD019093BE01A093BF0112
:1008D000B093C0018091C1019091C201A091C30168
:1008E000B091C4010196A11DB11D8093C1019093E7
:1008F000C201A093C301B093C401BF91AF919F9176
:100900008F913F912F910F900FBE0F901F901895D0
:100910001F920F920FB60F9211242F933F934F9374
:100920005F936F937F938F939F93AF93BF93EF9357
:10093000FF938091B900887F803609F49CC068F5E8
:10094000883209F45BC090F4803109F454C038F463
:10095000882309F4F6C0883009F44DC0F6C0883108
:1009600009F44CC0803209F45DC0EFC0803409F452
:1009700068C048F4803309F455C0883309F0E5C0F5
:1009800080939801D8C0803509F44FC0883509F4A8
:100990005DC0883409F0D9C0D6C0883909F4C7C011
:1009A000A8F4883709F467C038F4883609F463C0BE
:1009B000803709F460C0C9C0883809F4B8C08039EC
:1009C00009F45FC0803809F0C0C05BC0803B09F407
:1009D00086C038F4803A09F466C0883A09F47FC0CA
:1009E000B4C0803C09F4A7C0883C09F4A4C0883B8B
:1009F00009F48AC0AAC08091BB0110C09091BA01CD
:100A00008091B901981770F5E091BA0181E08E0FDD
:100A10008093BA01F0E0E756FE4F80818093BB00DF
:100A200085EC86C0809398018EC0E091BA0181E088
:100A30008E0F8093BA018091BB00F0E0E756FE4F25
:100A400080839091BA018091B9016EC0E091BA01A2
:100A500081E08E0F8093BA018091BB00F0E0E756F1
:100A6000FE4F80838091D60181116DC081E080931B
:100A7000D50184EA61C083E08093D7011092970189
:100A8000CFCF80919701803208F051C0E09197015B
:100A900081E08E0F809397018091BB00F0E0E958D0
:100AA000FE4F8083BDCF85EC8093BC001092D701B0
:100AB00080919701803230F4E0919701F0E0E9589D
:100AC000FE4F10826091970170E0E091DC01F0919F
:100AD000DD0187E791E009951092970136C084E027
:100AE0008093D7011092760110927501E091DE019A
:100AF000F091DF01099580917501811105C081E0B8
:100B00008093750110925501E091760181E08E0F7E
:100B100080937601F0E0EB5AFE4F80818093BB001A
:100B20009091760180917501981708F479CF85E846
:100B30008093BC000AC085EC8093BC001092D70162
:100B400004C0109298010E94FA02FF91EF91BF91A8
:100B5000AF919F918F917F916F915F914F913F9155
:100B60002F910F900FBE0F901F9018951F920F920C
:100B70000FB60F9211240F931F932F933F934F9310
:100B80005F936F937F938F939F93AF93BF932091C6
:100B9000840030918500B09B0BC081E086BB8091C2
:100BA000D1019091D20101969093D2018093D1010D
:100BB0008091D3019091D40101964091CA01509146
:100BC000CB018417950798F11092D4011092D301AC
:100BD0008091D1019091D201A0E0B0E0DC01992791
:100BE0008827820F931FA11DB11D4091CD01509107
:100BF000CE016091CF017091D0018C019D01041B49
:100C0000150B260B370B00932F0110933001209307
:100C10003101309332018093CD019093CE01A093A6
:100C2000CF01B093D00181E08093CC0104C09093B8
:100C3000D4018093D301BF91AF919F918F917F9108
:100C40006F915F914F913F912F911F910F910F9055
:100C50000FBE0F901F901895E2EEF1E01382128202
:100C600088EE93E0A0E0B0E084839583A683B78309
:100C700025E031E03183208325EC30E0358724877F
:100C800024EC30E03787268720EC30E0318B208B56
:100C900021EC30E0338B228B22EC30E0358B248B3F
:100CA00026EC30E0378B268B118E128E138E148E2D
:100CB000EFE7F2E01382128284839583A683B783E1
:100CC00087E191E0918380830895789484B5826070
:100CD00084BD84B5816084BD85B5826085BD85B5E0
:100CE000816085BD80916E00816080936E0010925E
:100CF00081008091810082608093810080918100D9
:100D00008160809381008091800081608093800069
:100D10008091B10084608093B1008091B0008160C7
:100D20008093B00080917A00846080937A008091F3
:100D30007A00826080937A0080917A00816080934B
:100D40007A0080917A00806880937A001092C100C6
:100D5000109200011092D4011092D3011092D2018E
:100D60001092D1011092CD011092CE011092CF01BC
:100D70001092D0011092CC01809180008093C60126
:100D8000809181008093C5011092810010928000B3
:100D9000109285001092840091E096BB10926F0033
:100DA0008091B0008093C8018091B1008093C70109
:100DB0001092B100C2E0C093B0008CE78093B30002
:100DC00027E02093C901C7BB1092B2004DE750E065
:100DD0005093CB014093CA013FB7F894C3BD8091B3
:100DE000C9018093B100C09370008BE08150F1F78E
:100DF000209381003FBF80E18093BA0024EA30E075
:100E00003093DF012093DE0120EB30E03093DD01F1
:100E10002093DC011092DB011092DA011092D901CB
:100E20001092D8011092D7019093D6011092D5015B
:100E300061E082E10E94320261E083E10E943202BD
:100E40008091B9008E7F8093B9008091B9008D7F29
:100E50008093B90088E48093B80085E48093BC0057
:100E600081E893E09093E1018093E001E091F20149
:100E7000F091F301C083E091EE01F091EF01108257
:100E8000E091F001F091F1018FEC80831092FA0172
:100E9000E091F601F091F70186E08083E091F401A2
:100EA000F091F501808180618083E091F401F091FF
:100EB000F501808188608083E091F401F091F50173
:100EC000808180688083E091F401F091F501808158
:100ED0008F7D808360E088E00E94620260E087E0AE
:100EE0000E94620261E089E00E94620261E08AE0A1
:100EF0000E94620260E089E00E94320260E08AE0C3
:100F00000E9432020E94D601FDCFEE0FFF1F059016
:100F1000F491E02D099481E090E0F8940C9490070E
:040F2000F894FFCF73
:100F240001000000006D01DA000501B4013601146E
:100F3400012801000000006C0358037E032C0350B9
:060F4400033C032D030035
:00000001FF
